:020000040800F2
:100000000050002009050008390400083B040008DE
:100010003D0400083F0400084104000800000000FF
:100020000000000000000000000000004304000881
:1000300045040008000000005105000851050008B3
:100040005105000851050008510500085105000838
:100050005105000851050008510500085105000828
:100060005105000851050008510500085105000818
:100070005105000851050008510500085105000808
:1000800051050008510500085105000851050008F8
:1000900051050008510500085105000851050008E8
:1000A00051050008510500085105000851050008D8
:1000B00051050008510500085105000851050008C8
:1000C00051050008510500085105000851050008B8
:1000D00051050008510500085105000851050008A8
:1000E00051050008510500085105000800000000F6
:1000F0000000000000000000000000000000000000
:0C01000000000000000000005FF808F1A3
:10010C0010B5054C237833B9044B13B10448AFF345
:10011C0000800123237010BD2C040020000000007F
:10012C000C01000808B5034B1BB103490348AFF39E
:10013C00008008BD00000000300400200C01000805
:10014C0070B50D4E0D4D761BB61006D00024013443
:10015C0055F8043B9847A642F9D1094E094D00F0D9
:10016C00FBF9761BB61006D00024013455F8043B7D
:10017C009847A642F9D170BD7C0500087C050008A3
:10018C00840500087C050008024B13B1024800F0FE
:10019C0005B8704700000000B501000800230146B7
:1001AC001A46184600F01EB838B50A4C0A4D641BA6
:1001BC00A4100AD004F18043013B05EB8305013CFC
:1001CC0055F804399847002CF9D1BDE8384000F0B7
:1001DC00C9B900BF8805000884050008704700BF36
:1001EC00704700BF2DE9F0411D4C05462068904634
:1001FC001F460E46FFF7F2FF1A4B1A68D2F8483129
:10020C001BB35A6820681F2A24DC4DB9511C0232DA
:10021C00596043F82260FFF7E3FF0020BDE8F0814E
:10022C00012403EB820CCCF88880D3F8881194401D
:10023C002143022DC3F88811CCF80871E6D1D3F80C
:10024C008C110C43C3F88C41E0E702F5A673C2F89D
:10025C004831D6E7FFF7C4FF4FF0FF30DEE700BFB1
:10026C00280400205405000882B00023019302E00A
:10027C00019B01330193019B834208DA0023009315
:10028C00009B092BF4DC009B01330093F8E702B0D0
:10029C007047000010B5114A936910210B4393610C
:1002AC000F4B5A680F490A405A605968C022920392
:1002BC000A435A60DA680C490A40DA6000F0BEF86A
:1002CC000A4800F00BF9094800F008F9044AD36811
:1002DC00DB43D3600648FFF7C7FFF4E7001002408A
:1002EC0000100140FFFF0FFFFFDFFFFF5805000864
:1002FC00A086010082B00023019300932E4A11685E
:10030C0080235B020B4313602B4B1B6880229202F1
:10031C0013400093019B01330193009B002B04D1EC
:10032C00019AA023DB009A42EED1234B1B689B035E
:10033C0006D501230093009B012B04D002B070471B
:10034C0000230093F7E71D4B1A6810210A431A602B
:10035C001A680D398A431A601A6801390A431A60FF
:10036C00154B5A685A605A685A6059688022D200F4
:10037C000A435A605A6812490A405A605968E8227E
:10038C0052030A435A601968802252040A431A60C5
:10039C00094B1B689B01FBD5074B5A6803218A4309
:1003AC005A605A6801390A435A60034B5A680C2345
:1003BC001340082BF9D1C1E7001002400020024085
:1003CC00FFFFC0FF10B5FFF795FF10BC01BC004745
:1003DC0010B5104B1A6801210A431A605A680E496D
:1003EC000A405A601A680D490A401A601A680C498A
:1003FC000A401A605A680B490A405A609F2212043C
:10040C009A60FFF7DFFF084B802212059A6010BC40
:10041C0001BC0047001002400000FFF8FFFFF6FE91
:10042C00FFFFFBFFFFFF80FF00ED00E07047FEE7E2
:10043C00FEE7FEE7FEE77047704700001C4B99692A
:10044C001C4A0A439A61D9688022D2010A43DA60B5
:10045C00DA6819490A40DA60184B5A6818490A4098
:10046C005A6059688B2212010A435A60154B9989BC
:10047C00802292010A439A819A8904210A439A8123
:10048C009A8920210A439A819A89082002439A81E9
:10049C009C2292001A810C48C3680C4A1A400C4BDF
:1004AC001343C3600B4B0C4A995420225A6070477B
:1004BC000010024004400000FFBFFFFF0008014095
:1004CC000FF0FFFF0038014000ED00E0FFF80000E6
:1004DC000001FA0500E100E02503000000E0013016
:1004EC000378002B06D0044A9380034B1B885B06D1
:1004FC00FBD5F4E77047C04600380140002103E00B
:10050C000B4B5B58435004310A480B4B42189A4230
:10051C00F6D30A4A02E0002342F8043B084B9A4205
:10052C00F9D3FFF755FFFFF70BFEFFF7B3FE70474C
:10053C0088050008000000202C0400202C0400205A
:10054C006C040020FEE700000000002052545320F1
:10055C0053746172740D0A00F8B500BFF8BC08BC86
:10056C009E467047F8B500BFF8BC08BC9E46704765
:08057C0095010008310100089F
:040584000D0100085D
:1005880000000000EC02002054030020BC030020FF
:100598000000000000000000000000000000000053
:1005A8000000000000000000000000000000000043
:1005B8000000000000000000000000000000000033
:1005C8000000000000000000000000000000000023
:1005D8000000000000000000000000000000000013
:1005E8000000000000000000000000000000000003
:1005F80000000000000000000000000000000000F3
:1006080000000000000000000000000000000000E2
:1006180000000000000000000000000000000000D2
:1006280000000000000000000100000000000000C1
:100638000E33CDAB34126DE6ECDE05000B00000086
:1006480000000000000000000000000000000000A2
:100658000000000000000000000000000000000092
:100668000000000000000000000000000000000082
:100678000000000000000000000000000000000072
:0C09A800000000000000000048040020D7
:0400000508000509E1
:00000001FF
