:020000040800F2
:1000000000500020B90C0008CD040008DB040008F3
:10001000E1040008E7040008ED0400080000000007
:10002000000000000000000000000000F3040008D1
:100030000105000800000000010D0008010D000886
:10004000010D0008010D0008010D0008010D000858
:10005000010D0008010D0008010D0008010D000848
:10006000010D0008010D0008010D0008010D000838
:10007000010D0008010D0008010D0008010D000828
:10008000010D0008010D0008010D0008010D000818
:10009000010D0008010D0008010D0008010D000808
:1000A000010D0008010D0008010D0008010D0008F8
:1000B000010D0008010D0008010D0008010D0008E8
:1000C000010D0008010D0008010D0008010D0008D8
:1000D000010D0008010D0008010D0008010D0008C8
:1000E000010D0008010D0008010D000800000000CE
:1000F0000000000000000000000000000000000000
:0C01000000000000000000005FF808F1A3
:10010C0010402DE928409FE50030D4E5000053E372
:10011C000500001A1C309FE5000053E318009F15E2
:10012C0000F020130130A0E30030C4E51040BDE81E
:10013C001EFF2FE144040020000000000C01000809
:10014C001C309FE5000053E31EFF2F0110402DE9EA
:10015C0010109FE510009FE500F020E31040BDE873
:10016C001EFF2FE100000000480400200C010008D5
:10017C0080B584B000AF78600023FB600BE00023F7
:10018C00BB6002E0BB680133BB60BB68092BF9DDC7
:10019C00FB680133FB60FB687A689A42EFDCC0466F
:1001AC00BD4604B080BC01BC004780B500AF174B06
:1001BC009A69164B10210A439A61154B5A68144BD5
:1001CC0014490A405A60124B5A68114BC0218903DA
:1001DC000A435A600E4BDA680D4B0F490A40DA603D
:1001EC0000F041FA0D4B180000F0CEFA0B4B180042
:1001FC0000F0CAFA064BDA68054BD243DA60FA23F0
:10020C009B001800FFF7B4FFF0E7C0460010024057
:10021C0000100140FFFF0FFFFFDFFFFF040D000880
:10022C0080B500AF164B1A68154B01210A431A60B2
:10023C00134B5A68124B13490A405A60104B1A68F8
:10024C000F4B11490A401A600D4B1A680C4B0F49A1
:10025C000A401A600A4B5A68094B0D490A405A6009
:10026C00074B9F2212049A6000F098F8094B8022E9
:10027C0012059A60C046BD4680BC01BC0047C04612
:10028C00001002400000FFF8FFFFF6FEFFFFFBFF2F
:10029C00FFFF80FF00ED00E080B584B000AF0023CD
:1002AC00FB600023BB6000237B60384B5B680C2237
:1002BC001340FB60FB68042B09D0FB68082B0AD0A9
:1002CC00FB68002B47D1324B324A1A6047E0304B67
:1002DC00304A1A6043E02D4B5A68F0239B031340BD
:1002EC00BB602A4B5A6880235B0213407B60BB685F
:1002FC009B0C0233BB607B68002B0CD1B9680A00E5
:10030C005201521A93019B1ADB005B181B021A0054
:10031C001F4B1A6023E01D4B5A6880239B0213402D
:10032C000CD0B9680A005201521A93019B1ADB00D7
:10033C005B181B021A00164B1A6010E0B9680A0011
:10034C005201521A93019B1ADB005B185B021A00D4
:10035C000F4B1A6003E00E4B0E4A1A60C0460B4B53
:10036C005B681B090F2213400B4AD35C1B061B0E48
:10037C00FB60074B1A68FB68DA40054B1A60C046F5
:10038C00BD4604B080BC01BC0047C0460010024012
:10039C000000002000127A000400002080B500AF9D
:1003AC0000F005F8C046BD4680BC01BC004780B5D6
:1003BC0082B000AF00237B6000233B603D4B1A688A
:1003CC003C4B802149020A431A603A4B1A6880233D
:1003DC009B0213403B607B6801337B603B68002BC6
:1003EC0004D17A68A023DB009A42EED1314B1A6813
:1003FC0080239B02134002D001233B6001E00023C9
:10040C003B603B68012B4ED12B4B1A682A4B1021B9
:10041C000A431A60284B1A68274B03218A431A6037
:10042C00254B1A68244B02210A431A60214A214B9E
:10043C0052685A601F4A1F4B52685A601D4B5A68CB
:10044C001C4B8021C9000A435A601A4B5A68194B3D
:10045C001A490A405A60174B5A68164BE82149034F
:10046C000A435A60134B1A68124B802149040A4301
:10047C001A60C0460F4B1A6880239B041340F9D0B6
:10048C000C4B5A680B4B03218A435A60094B5A6830
:10049C00084B02210A435A60C046064B5B680C228B
:1004AC001340082BF9D1C046BD4602B080BC01BC3C
:1004BC000047C0460010024000200240FFFFC0FF72
:1004CC0080B500AFC046BD4680BC01BC004780B5BE
:1004DC0000AFFEE780B500AFFEE780B500AFFEE7EA
:1004EC0080B500AFFEE780B500AFC046BD4680BC0E
:1004FC0001BC004780B500AFC046BD4680BC01BC06
:10050C000047000080B584B000AF78607B6807229C
:10051C001340FB600B4BDB68BB60BB680A4A1340A3
:10052C00BB60FB681A02BB681343084A1343BB60E9
:10053C00044BBA68DA60C046BD4604B080BC01BC4E
:10054C000047C04600ED00E0FFF800000000FA058F
:10055C0080B582B000AF0200FB1D1A70FB1D1B782A
:10056C007F2B0FD8FB1D1B781A001F231A4008493C
:10057C00FB1D1B781B061B165B090120904002001B
:10058C009B005A50C046BD4602B080BC01BC00471F
:10059C0000E100E080B582B000AF02003960FB1DC5
:1005AC001A70FB1D1B787F2B11D83B681B061B0E8A
:1005BC001149FA1D1278120612161B011B06180E91
:1005CC00C0239B008A18D318021C1A700EE03B68DB
:1005DC001B061A0E0949FB1D1B7818000F2303403C
:1005EC00043B12011206120ECB181A76C046BD46F9
:1005FC0002B080BC01BC004700E100E000ED00E06F
:10060C0080B588B000AFF860B9607A60FB680722EB
:10061C001340FB61FB690722D31A042B00D9042376
:10062C00BB61FB690433062B02D9FB69033B00E079
:10063C0000237B6101235A42BB699A401300DB43C0
:10064C00BA681A407B699A40012359427B699940E8
:10065C000B00DB4379680B4013431800BD4608B010
:10066C0080BC02BC084790B583B000AF3F4B9A6981
:10067C003E4B3F490A439A613C4BDA683B4B802125
:10068C00C9010A43DA60394BDA68384B39490A40F8
:10069C00DA60394B5A68384B38490A405A60364B45
:1006AC005A68354B8B2109010A435A60344B9B899C
:1006BC001B041B0C32498022920113431B041B0C9C
:1006CC008B812F4B9B891B041B0C2D4A04210B4344
:1006DC001B041B0C93812A4B9B891B041B0C284A63
:1006EC0020210B431B041B0C9381254B9B891B0462
:1006FC001B0C234A08210B431B041B0C938127233F
:10070C007B60786800F04AF9031C191C1D4800F046
:10071C0065F8031C3B607B681B041B0C1B011B0452
:10072C001C0C386800F0ACF903001B041B0C1B01FB
:10073C001B041B0C124A23431B041B0C13810120AA
:10074C00FFF7E0FE012202210120FFF759FF030011
:10075C0019002520FFF71EFF2520FFF7F9FEC046E4
:10076C00BD4603B090BC01BC0047C046001002401F
:10077C0004400000FFBFFFFF000801400FF0FFFF27
:10078C000038014000001C4280B584B000AF786096
:10079C007B68FB6011E0FB681B780D4A1B041B0C8B
:1007AC009380C0460A4B1B881B041B0C1A00402369
:1007BC001340F7D0FB680133FB60FB681B78002B00
:1007CC00E9D1C046BD4604B080BC01BC0047C04660
:1007DC0000380140020120E2000000EA021121E28F
:1007EC008020B0E18130B0110300321142CCF01105
:1007FC0043CCF0114700000A222CA0E1233C72E00C
:10080C00032082C0011020C0000021C0011020C0B4
:10081C00003063B2190053E31EFF2F81020110E375
:10082C00020580E3FF04C0E300006012020111E343
:10083C00021581E3FF14C1E300106112030032E1E1
:10084C002E00000A012042E2510390E0203063E2C6
:10085C001113A0E1023100E20100005A001071E214
:10086C000000E0E2020550E30B00003A010450E303
:10087C000400003AA000B0E16110A0E1012082E286
:10088C00FE0052E33800002A020151E3820BA0E083
:10089C000100C003030080E11EFF2FE18110B0E1D5
:1008AC000000A0E0020510E3012042E2F5FFFF1A70
:1008BC0020C6B0E10006A0010C204202FF0810E3A4
:1008CC000004A001082042020F0610E30002A00160
:1008DC0004204202030510E30001A00102204202A1
:1008EC00020550E38000A0310020D2E2820B80A0F0
:1008FC00002062B2030080A1300283B11EFF2FE101
:10090C00000032E3021521E20205200201208202DE
:10091C0001304312CAFFFFEA8130A0E142CCF0E182
:10092C0043CCF0111300000A030032E10200000A6C
:10093C00000032E30100A0011EFF2FE1010030E1B5
:10094C000000A0131EFF2F11FF0412E30200001A77
:10095C008000B0E1020180231EFF2FE1022492E20D
:10096C00020580321EFF2F31023100E27F0483E347
:10097C00020580E31EFF2FE1422CF0E10100A011E3
:10098C00433CF0010010A0118024B0E18134B0018F
:10099C0001003001010580131EFF2FE10030A0E3A0
:1009AC00010000EA023110E20000604200C0B0E138
:1009BC001EFF2F014B3483E30010A0E10000A0E3E5
:1009CC000F0000EA012090E11EFF2F010030A0E390
:1009DC00050000EA012090E11EFF2F01023111E217
:1009EC000100005A000070E20010E1E201C0B0E129
:1009FC0000C0A0010010A0010000A0035B3483E341
:100A0C0001324302023543E21720A0E301085CE304
:100A1C002CC8A02110204222010C5CE32CC4A02184
:100A2C000820422210005CE32CC2A02104204222A8
:100A3C0004005CE302204222AC204230AC2152E0A4
:100A4C00823B43E0060000BA113283E010C2A0E101
:100A5C00202062E202015CE33002A3E00100C0034B
:100A6C001EFF2FE1202082E211C2A0E1202062E2D1
:100A7C008C0090E13102A3E0AC0FC0011EFF2FE10E
:100A8C008020B0E10800002A7F0452E30600003AFF
:100A9C009E30A0E3222C53E00500004A0034A0E174
:100AAC00023183E33302A0E11EFF2FE10000A0E33B
:100ABC001EFF2FE1610072E30100001A8024B0E1F7
:100ACC000100001A0000E0E31EFF2FE10000A0E38C
:100ADC001EFF2FE170402DE96C609FE56C509FE587
:100AEC00056046E04661B0E10700000A0040A0E363
:100AFC00045045E2014084E20430B5E50FE0A0E18A
:100B0C0013FF2FE1040056E1F9FFFF1A40609FE547
:100B1C0040509FE5056046E07A0000EB4661B0E18D
:100B2C000700000A0040A0E3045045E2014084E2C3
:100B3C000430B5E50FE0A0E113FF2FE1040056E10E
:100B4C00F9FFFF1A7040BDE81EFF2FE1440D0008AD
:100B5C00440D00084C0D0008440D000818309FE5AA
:100B6C00000053E31EFF2F0110402DE90C009FE500
:100B7C00030000EB1040BDE81EFF2FE10000000059
:100B8C00B00B00080030A0E310402DE90010A0E1EC
:100B9C000320A0E10300A0E1150000EB1040BDE82C
:100BAC001EFF2FE170402DE934409FE534509FE546
:100BBC00054044E04441B0E10600000A045185E0E0
:100BCC00014044E2043035E50FE0A0E113FF2FE1D2
:100BDC00000054E3F9FFFF1A500000EB7040BDE831
:100BEC001EFF2FE1500D00084C0D00081EFF2FE1D9
:100BFC001EFF2FE1F0412DE9A4409FE50050A0E13C
:100C0C00000094E50280A0E10370A0E10160A0E186
:100C1C00F5FFFFEB8C309FE5002093E5483192E522
:100C2C00000053E3533F820248318205042093E5D0
:100C3C001F0052E3000094E5160000CA000055E3C3
:100C4C000700001A011082E2022082E2041083E500
:100C5C00026183E7E5FFFFEB0000A0E3F041BDE894
:100C6C001EFF2FE101C0A0E302E183E088808EE546
:100C7C00881193E51CC2A0E10C1081E1881183E579
:100C8C0008718EE5020055E38C1193050CC08101AF
:100C9C008CC18305EAFFFFEAD4FFFFEB0000E0E321
:100CAC00EDFFFFEA40040020100D0008002103E0D6
:100CBC000B4B5B58435004310A480B4B42189A4279
:100CCC00F6D30A4A02E0002342F8043B084B9A424E
:100CDC00F9D3FFF7A5FAFFF7FDFEFFF766FA7047A9
:100CEC00500D0008000000204404002044040020A3
:100CFC0084040020FEE700005254532053746172A8
:100D0C00740D0A00180000200DC0A0E1F8DF2DE9D9
:100D1C0004B04CE228D04BE2F06F9DE81EFF2FE1AF
:100D2C000DC0A0E1F8DF2DE904B04CE228D04BE275
:080D3C00F06F9DE81EFF2FE19E
:080D4400680B00084C010008D7
:040D4C000C0100088E
:100D500000A24A0400000000000000000102030499
:100D6000060708090000000000000000040300203E
:100D70006C030020D40300200000000000000000ED
:100D80000000000000000000000000000000000063
:100D90000000000000000000000000000000000053
:100DA0000000000000000000000000000000000043
:100DB0000000000000000000000000000000000033
:100DC0000000000000000000000000000000000023
:100DD0000000000000000000000000000000000013
:100DE0000000000000000000000000000000000003
:100DF00000000000000000000000000000000000F3
:100E000000000000000000000000000000000000E2
:100E100001000000000000000E33CDAB34126DE67F
:100E2000ECDE05000B0000000000000000000000E8
:100E300000000000000000000000000000000000B2
:100E400000000000000000000000000000000000A2
:100E50000000000000000000000000000000000092
:100E60000000000000000000000000000000000082
:0411900060040020D7
:0400000508000CB92A
:00000001FF
