:020000040800F2
:100000000050002059050008CD020008D102000868
:10001000D5020008D9020008DD0200080000000037
:10002000000000000000000000000000E1020008E5
:10003000E502000800000000A1050008A105000875
:10004000A1050008A1050008A1050008A1050008F8
:10005000A1050008A1050008A1050008A1050008E8
:10006000A1050008A1050008A1050008A1050008D8
:10007000A1050008A1050008A1050008A1050008C8
:10008000A1050008A1050008A1050008A1050008B8
:10009000A1050008A1050008A1050008A1050008A8
:1000A000A1050008A1050008A1050008A105000898
:1000B000A1050008A1050008A1050008A105000888
:1000C000A1050008A1050008A1050008A105000878
:1000D000A1050008A1050008A1050008A105000868
:1000E000A1050008A1050008A10500080000000006
:1000F0000000000000000000000000000000000000
:0C01000000000000000000005FF808F1A3
:10010C0010B5054C237833B9044B13B10448AFF345
:10011C0000800123237010BD440400200000000067
:10012C000C01000808B5034B1BB103490348AFF39E
:10013C00008008BD00000000480400200C010008ED
:10014C0001213F4B1A680A431A603E495A680A401B
:10015C005A603D491A680A401A603C491A680A40BC
:10016C001A603B495A680A405A609F2212049A60EE
:10017C00002282B0009201928022196852020A4336
:10018C008020A0211A608002C90002E0009A8A42F5
:10019C0008D01A6802400192009A01320092019A2A
:1001AC00002AF3D08022264B1B68920213400AD0FF
:1001BC0001230193019B012B09D08022254B1205B1
:1001CC009A6002B070470193019B012BF5D110216D
:1001DC00214B1A680A431A601A680D398A431A604F
:1001EC001A6801390A431A60154B5A685A605A68E2
:1001FC005A6080225968D2000A435A6017495A68DB
:10020C000A405A60E822596852030A435A60802215
:10021C00196852040A4380211A6089041A680A4238
:10022C00FCD003215A688A435A605A6801390A4340
:10023C005A600C2202494B681340082BFBD1BCE7D7
:10024C00001002400000FFF8FFFFF6FEFFFFFBFF6F
:10025C00FFFF80FF00ED00E000200240FFFFC0FF29
:10026C000C2314494A681340082B09D0124A114B2D
:10027C005B6812491B061B0FCB5CDA400A617047A6
:10028C004B6848689B021B0F9A1CC3030AD54B682A
:10029C009B0307D453019B1A9901CB1ADB009A18C4
:1002AC005202E4E753019B1A9901CB1ADB009A180E
:1002BC001202DCE70010024000127A00000000205D
:1002CC007047C046FEE7C046FEE7C046FEE7C046A4
:1002DC00FEE7C0467047C0467047C0461C4B1D4ADF
:1002EC0099690A439A618022D968D2010A43DA607B
:1002FC001949DA680A40DA60184B19495A680A40F9
:10030C005A608B22596812010A435A608022154B9D
:10031C00998992010A4304219A819A890A432021DE
:10032C0008209A819A890A439A819A8902439A8170
:10033C009C2292001A810C480C4AC3681A400C4B40
:10034C001343C3600B4A0C4B995420225A607047DC
:10035C000010024004400000FFBFFFFF00080140F6
:10036C000FF0FFFF0038014000ED00E0FFF8000047
:10037C000001FA052503000000E100E00378002BE2
:10038C0009D04021044A938013881942FCD00130D3
:10039C000378002BF7D170470038014070B50D4E33
:1003AC000D4D761BB61006D00024013455F8043BD5
:1003BC009847A642F9D1094E094D00F0F5F8761B85
:1003CC00B61006D00024013455F8043B9847A642D9
:1003DC00F9D170BDCC050008CC050008D405000887
:1003EC00CC050008024B13B1024800F005B8704769
:1003FC000000000011040008002301461A461846AC
:10040C0000F01EB838B50A4C0A4D641BA4100AD073
:10041C0004F18043013B05EB8305013C55F804399D
:10042C009847002CF9D1BDE8384000F0C3B800BFA4
:10043C00D8050008D4050008704700BF704700BFFE
:10044C002DE9F0411D4C0546206890461F460E468E
:10045C00FFF7F2FF1A4B1A68D2F848311BB35A68EF
:10046C0020681F2A24DC4DB9511C0232596043F814
:10047C002260FFF7E3FF0020BDE8F081012403EBCD
:10048C00820CCCF88880D3F8881194402143022D3B
:10049C00C3F88811CCF80871E6D1D3F88C110C4351
:1004AC00C3F88C41E0E702F5A673C2F84831D6E7F1
:1004BC00FFF7C4FF4FF0FF30DEE700BF4004002021
:1004CC00A405000810211B4A93690B43F0B59361F6
:1004DC00194E1A4A736813407360C02372689B03E9
:1004EC0013437360164AF368134083B0F360FFF74D
:1004FC00F5FE144F3800FFF741FF0025124C380071
:10050C00FFF73CFFF368DB43F3600095009BA342CD
:10051C00F5DC0195019B092B05DC019B0133019353
:10052C00019B092BF9DD009B01330093009BA34237
:10053C00EFDDE4E70010024000100140FFFF0FFF69
:10054C00FFDFFFFFA8050008E7030000002103E020
:10055C000B4B5B58435004310A480B4B42189A42E0
:10056C00F6D30A4A02E0002342F8043B084B9A42B5
:10057C00F9D3FFF7E5FDFFF711FFFFF7A3FF704776
:10058C00D80500080000002044040020440400208A
:10059C0084040020FEE70000180000205254532071
:1005AC0053746172740D0A00F8B500BFF8BC08BC36
:1005BC009E467047F8B500BFF8BC08BC9E46704715
:0805CC00F103000831010008F1
:0405D4000D0100080D
:1005D80000000000000000000102030406070809EB
:1005E80000A24A04000000000000000004030020EC
:1005F8006C030020D403002000000000000000006D
:1006080000000000000000000000000000000000E2
:1006180000000000000000000000000000000000D2
:1006280000000000000000000000000000000000C2
:1006380000000000000000000000000000000000B2
:1006480000000000000000000000000000000000A2
:100658000000000000000000000000000000000092
:100668000000000000000000000000000000000082
:100678000000000000000000000000000000000072
:100688000000000000000000000000000000000062
:1006980001000000000000000E33CDAB34126DE6FF
:1006A800ECDE05000B000000000000000000000068
:1006B8000000000000000000000000000000000032
:1006C8000000000000000000000000000000000022
:1006D8000000000000000000000000000000000012
:1006E8000000000000000000000000000000000002
:040A18006004002056
:040000050800055991
:00000001FF
